{
  "_format": "hh-sol-artifact-1",
  "contractName": "TodoList",
  "sourceName": "contracts/TodoList.sol",
  "abi": [
    {
      "inputs": [],
      "stateMutability": "nonpayable",
      "type": "constructor"
    },
    {
      "anonymous": false,
      "inputs": [
        {
          "indexed": true,
          "internalType": "address",
          "name": "account",
          "type": "address"
        },
        {
          "indexed": true,
          "internalType": "uint256",
          "name": "userId",
          "type": "uint256"
        },
        {
          "indexed": false,
          "internalType": "string",
          "name": "message",
          "type": "string"
        },
        {
          "indexed": false,
          "internalType": "bool",
          "name": "completed",
          "type": "bool"
        }
      ],
      "name": "ToDoEvent",
      "type": "event"
    },
    {
      "inputs": [
        {
          "internalType": "string",
          "name": "_message",
          "type": "string"
        }
      ],
      "name": "CreateList",
      "outputs": [],
      "stateMutability": "nonpayable",
      "type": "function"
    },
    {
      "inputs": [],
      "name": "_idUser",
      "outputs": [
        {
          "internalType": "uint256",
          "name": "",
          "type": "uint256"
        }
      ],
      "stateMutability": "view",
      "type": "function"
    },
    {
      "inputs": [],
      "name": "contractOwner",
      "outputs": [
        {
          "internalType": "address",
          "name": "",
          "type": "address"
        }
      ],
      "stateMutability": "view",
      "type": "function"
    },
    {
      "inputs": [
        {
          "internalType": "uint256",
          "name": "",
          "type": "uint256"
        }
      ],
      "name": "creators",
      "outputs": [
        {
          "internalType": "address",
          "name": "",
          "type": "address"
        }
      ],
      "stateMutability": "view",
      "type": "function"
    },
    {
      "inputs": [],
      "name": "getAddress",
      "outputs": [
        {
          "internalType": "address[]",
          "name": "",
          "type": "address[]"
        }
      ],
      "stateMutability": "view",
      "type": "function"
    },
    {
      "inputs": [
        {
          "internalType": "address",
          "name": "_address",
          "type": "address"
        }
      ],
      "name": "getCreatorData",
      "outputs": [
        {
          "internalType": "address",
          "name": "",
          "type": "address"
        },
        {
          "internalType": "uint256",
          "name": "",
          "type": "uint256"
        },
        {
          "internalType": "string",
          "name": "",
          "type": "string"
        },
        {
          "internalType": "bool",
          "name": "",
          "type": "bool"
        }
      ],
      "stateMutability": "view",
      "type": "function"
    },
    {
      "inputs": [],
      "name": "getMessage",
      "outputs": [
        {
          "internalType": "string[]",
          "name": "",
          "type": "string[]"
        }
      ],
      "stateMutability": "view",
      "type": "function"
    },
    {
      "inputs": [
        {
          "internalType": "uint256",
          "name": "",
          "type": "uint256"
        }
      ],
      "name": "messageId",
      "outputs": [
        {
          "internalType": "uint256",
          "name": "",
          "type": "uint256"
        }
      ],
      "stateMutability": "view",
      "type": "function"
    },
    {
      "inputs": [
        {
          "internalType": "uint256",
          "name": "",
          "type": "uint256"
        }
      ],
      "name": "messages",
      "outputs": [
        {
          "internalType": "string",
          "name": "",
          "type": "string"
        }
      ],
      "stateMutability": "view",
      "type": "function"
    },
    {
      "inputs": [
        {
          "internalType": "address",
          "name": "",
          "type": "address"
        }
      ],
      "name": "toDoListApps",
      "outputs": [
        {
          "internalType": "address",
          "name": "account",
          "type": "address"
        },
        {
          "internalType": "uint256",
          "name": "userId",
          "type": "uint256"
        },
        {
          "internalType": "string",
          "name": "message",
          "type": "string"
        },
        {
          "internalType": "bool",
          "name": "completed",
          "type": "bool"
        }
      ],
      "stateMutability": "view",
      "type": "function"
    },
    {
      "inputs": [
        {
          "internalType": "address",
          "name": "_creator",
          "type": "address"
        }
      ],
      "name": "toggle",
      "outputs": [],
      "stateMutability": "nonpayable",
      "type": "function"
    }
  ],
  "bytecode": "0x608060405234801561001057600080fd5b5033600160006101000a81548173ffffffffffffffffffffffffffffffffffffffff021916908373ffffffffffffffffffffffffffffffffffffffff160217905550611142806100616000396000f3fe608060405234801561001057600080fd5b50600436106100a95760003560e01c806374310d081161007157806374310d081461017b57806394432cc5146101ae578063cd53d08e146101cc578063ce606ee0146101fc578063ce6d41de1461021a578063fcc4a51014610238576100a9565b80630d64e697146100ae5780630d80fefd146100e157806321e47d461461011157806338cc483114610141578063588f9acc1461015f575b600080fd5b6100c860048036038101906100c39190610aff565b610254565b6040516100d89493929190610c08565b60405180910390f35b6100fb60048036038101906100f69190610c80565b6103d9565b6040516101089190610cad565b60405180910390f35b61012b60048036038101906101269190610c80565b610485565b6040516101389190610ccf565b60405180910390f35b6101496104a9565b6040516101569190610da8565b60405180910390f35b61017960048036038101906101749190610aff565b610537565b005b61019560048036038101906101909190610aff565b6105ac565b6040516101a59493929190610c08565b60405180910390f35b6101b6610691565b6040516101c39190610ccf565b60405180910390f35b6101e660048036038101906101e19190610c80565b610697565b6040516101f39190610dca565b60405180910390f35b6102046106d6565b6040516102119190610dca565b60405180910390f35b6102226106fc565b60405161022f9190610ef1565b60405180910390f35b610252600480360381019061024d9190610f78565b6107d5565b005b6000806060600080600560008773ffffffffffffffffffffffffffffffffffffffff1673ffffffffffffffffffffffffffffffffffffffff1681526020019081526020016000206040518060800160405290816000820160009054906101000a900473ffffffffffffffffffffffffffffffffffffffff1673ffffffffffffffffffffffffffffffffffffffff1673ffffffffffffffffffffffffffffffffffffffff1681526020016001820154815260200160028201805461031690610ff4565b80601f016020809104026020016040519081016040528092919081815260200182805461034290610ff4565b801561038f5780601f106103645761010080835404028352916020019161038f565b820191906000526020600020905b81548152906001019060200180831161037257829003601f168201915b505050505081526020016003820160009054906101000a900460ff161515151581525050905080600001518160200151826040015183606001519450945094509450509193509193565b600381815481106103e957600080fd5b90600052602060002001600091509050805461040490610ff4565b80601f016020809104026020016040519081016040528092919081815260200182805461043090610ff4565b801561047d5780601f106104525761010080835404028352916020019161047d565b820191906000526020600020905b81548152906001019060200180831161046057829003601f168201915b505050505081565b6004818154811061049557600080fd5b906000526020600020016000915090505481565b6060600280548060200260200160405190810160405280929190818152602001828054801561052d57602002820191906000526020600020905b8160009054906101000a900473ffffffffffffffffffffffffffffffffffffffff1673ffffffffffffffffffffffffffffffffffffffff16815260200190600101908083116104e3575b5050505050905090565b6000600560008373ffffffffffffffffffffffffffffffffffffffff1673ffffffffffffffffffffffffffffffffffffffff16815260200190815260200160002090508060030160009054906101000a900460ff16158160030160006101000a81548160ff0219169083151502179055505050565b60056020528060005260406000206000915090508060000160009054906101000a900473ffffffffffffffffffffffffffffffffffffffff16908060010154908060020180546105fb90610ff4565b80601f016020809104026020016040519081016040528092919081815260200182805461062790610ff4565b80156106745780601f1061064957610100808354040283529160200191610674565b820191906000526020600020905b81548152906001019060200180831161065757829003601f168201915b5050505050908060030160009054906101000a900460ff16905084565b60005481565b600281815481106106a757600080fd5b906000526020600020016000915054906101000a900473ffffffffffffffffffffffffffffffffffffffff1681565b600160009054906101000a900473ffffffffffffffffffffffffffffffffffffffff1681565b60606003805480602002602001604051908101604052809291908181526020016000905b828210156107cc57838290600052602060002001805461073f90610ff4565b80601f016020809104026020016040519081016040528092919081815260200182805461076b90610ff4565b80156107b85780601f1061078d576101008083540402835291602001916107b8565b820191906000526020600020905b81548152906001019060200180831161079b57829003601f168201915b505050505081526020019060010190610720565b50505050905090565b6107dd6109db565b6000805490506000600560003373ffffffffffffffffffffffffffffffffffffffff1673ffffffffffffffffffffffffffffffffffffffff1681526020019081526020016000209050338160000160006101000a81548173ffffffffffffffffffffffffffffffffffffffff021916908373ffffffffffffffffffffffffffffffffffffffff160217905550838382600201919061087c9291906109f4565b5060008160030160006101000a81548160ff0219169083151502179055508181600101819055506002339080600181540180825580915050600190039060005260206000200160009091909190916101000a81548173ffffffffffffffffffffffffffffffffffffffff021916908373ffffffffffffffffffffffffffffffffffffffff16021790555060038484909180600181540180825580915050600190039060005260206000200160009091929091929091929091925091906109439291906109f4565b50600482908060018154018082558091505060019003906000526020600020016000909190919091505580600101543373ffffffffffffffffffffffffffffffffffffffff167f97cb199a6fede85e8843b14a3b82273a76130b0e671f8803ce27aa90d52ee11486868560030160009054906101000a900460ff166040516109cd93929190611062565b60405180910390a350505050565b6000808154809291906109ed906110c3565b9190505550565b828054610a0090610ff4565b90600052602060002090601f016020900481019282610a225760008555610a69565b82601f10610a3b57803560ff1916838001178555610a69565b82800160010185558215610a69579182015b82811115610a68578235825591602001919060010190610a4d565b5b509050610a769190610a7a565b5090565b5b80821115610a93576000816000905550600101610a7b565b5090565b600080fd5b600080fd5b600073ffffffffffffffffffffffffffffffffffffffff82169050919050565b6000610acc82610aa1565b9050919050565b610adc81610ac1565b8114610ae757600080fd5b50565b600081359050610af981610ad3565b92915050565b600060208284031215610b1557610b14610a97565b5b6000610b2384828501610aea565b91505092915050565b610b3581610ac1565b82525050565b6000819050919050565b610b4e81610b3b565b82525050565b600081519050919050565b600082825260208201905092915050565b60005b83811015610b8e578082015181840152602081019050610b73565b83811115610b9d576000848401525b50505050565b6000601f19601f8301169050919050565b6000610bbf82610b54565b610bc98185610b5f565b9350610bd9818560208601610b70565b610be281610ba3565b840191505092915050565b60008115159050919050565b610c0281610bed565b82525050565b6000608082019050610c1d6000830187610b2c565b610c2a6020830186610b45565b8181036040830152610c3c8185610bb4565b9050610c4b6060830184610bf9565b95945050505050565b610c5d81610b3b565b8114610c6857600080fd5b50565b600081359050610c7a81610c54565b92915050565b600060208284031215610c9657610c95610a97565b5b6000610ca484828501610c6b565b91505092915050565b60006020820190508181036000830152610cc78184610bb4565b905092915050565b6000602082019050610ce46000830184610b45565b92915050565b600081519050919050565b600082825260208201905092915050565b6000819050602082019050919050565b610d1f81610ac1565b82525050565b6000610d318383610d16565b60208301905092915050565b6000602082019050919050565b6000610d5582610cea565b610d5f8185610cf5565b9350610d6a83610d06565b8060005b83811015610d9b578151610d828882610d25565b9750610d8d83610d3d565b925050600181019050610d6e565b5085935050505092915050565b60006020820190508181036000830152610dc28184610d4a565b905092915050565b6000602082019050610ddf6000830184610b2c565b92915050565b600081519050919050565b600082825260208201905092915050565b6000819050602082019050919050565b600082825260208201905092915050565b6000610e2d82610b54565b610e378185610e11565b9350610e47818560208601610b70565b610e5081610ba3565b840191505092915050565b6000610e678383610e22565b905092915050565b6000602082019050919050565b6000610e8782610de5565b610e918185610df0565b935083602082028501610ea385610e01565b8060005b85811015610edf5784840389528151610ec08582610e5b565b9450610ecb83610e6f565b925060208a01995050600181019050610ea7565b50829750879550505050505092915050565b60006020820190508181036000830152610f0b8184610e7c565b905092915050565b600080fd5b600080fd5b600080fd5b60008083601f840112610f3857610f37610f13565b5b8235905067ffffffffffffffff811115610f5557610f54610f18565b5b602083019150836001820283011115610f7157610f70610f1d565b5b9250929050565b60008060208385031215610f8f57610f8e610a97565b5b600083013567ffffffffffffffff811115610fad57610fac610a9c565b5b610fb985828601610f22565b92509250509250929050565b7f4e487b7100000000000000000000000000000000000000000000000000000000600052602260045260246000fd5b6000600282049050600182168061100c57607f821691505b602082108114156110205761101f610fc5565b5b50919050565b82818337600083830152505050565b60006110418385610b5f565b935061104e838584611026565b61105783610ba3565b840190509392505050565b6000604082019050818103600083015261107d818587611035565b905061108c6020830184610bf9565b949350505050565b7f4e487b7100000000000000000000000000000000000000000000000000000000600052601160045260246000fd5b60006110ce82610b3b565b91507fffffffffffffffffffffffffffffffffffffffffffffffffffffffffffffffff82141561110157611100611094565b5b60018201905091905056fea2646970667358221220bcbd6a945b8083f24bdf2d24fd09509a1c2189cadb054b28acb9f4c287eb36cc64736f6c63430008090033",
  "linkReferences": {},
  "deployedLinkReferences": {}
}